:0400000080312A28F9
:100008007E1480312100911E28282000911E282866
:1000180023009D1D1E281908F6007608FA007A08A4
:1000280082319D2280317008710403192828230029
:100038009D1128289D1928281908F6007608F90026
:100048009D1579088131DB217E10090080312C282B
:100058008231B822C100FD01F701F801F901FA0166
:10006800FB01FC017E1020008231AD2AAA01A31FEA
:100078004A28A009A109A209A309A00A0319A10AEB
:100088000319A20A0319A30AAA01AA0AA71F5B282F
:10009800A409A509A609A709A40A0319A50A031909
:1000A800A60A0319A70A0130A8002808AA060030E2
:1000B800AE000030AD000030AC000030AB002308CB
:1000C8002204210420040319A428A901A90AA31BB6
:1000D80079280130A035A10DA20DA30D890B6E283A
:1000E8000130A8002808A9076B280130AB35AC0DF2
:1000F800AD0DAE0D890B7A2823082702031D8E2823
:1001080022082602031D8E2821082502031D8E2899
:1001180020082402031C99282008A4022108A53BD2
:100128002208A63B2308A73B2B140130A336A20CB8
:10013800A10CA00C890B9A280130A902031D79286B
:100148002A080319B228AB09AC09AD09AE09AB0AF4
:100158000319AC0A0319AD0A0319AE0A2E08A30045
:100168002D08A2002C08A1002B08A00008001429C3
:100178000D0803390C3EA2002208A000023082318B
:100188005622803182311822803182311822803102
:1001980020000D08A2000230A236890BD0282208C0
:1001A80003390C3EA3002308A000033082315622F5
:1001B80080318231182280318231182208000D08DE
:1001C8000339043EA2002208A000013082315622E1
:1001D80080310D08A2000230A236890BF0282208CF
:1001E8000339A3002308A0000330823156220800F7
:1001F8000D080339A2002208A000013082315622DE
:1002080080310D08A2000230A236890B0829220885
:100218000339A3002308A0000230823156220800C7
:100228004108013A0319BC28033A0319E328013AA3
:100238000319FC281F29080079290D0803390C3EE9
:10024800F2007208F0000230823187228131823157
:100258003A22813182313A22813120000D08F200A0
:100268000230F236890B3529720803390C3EF30047
:100278007308F000033082318722813182313A22BB
:10028800813182313A2208000D080339043EF20018
:100298007208F00001308231872281310D08F200A6
:1002A8000230F236890B552972080339F3007308B6
:1002B800F00003308231872208000D080339F2006C
:1002C8007208F00001308231872281310D08F20076
:1002D8000230F236890B6D2972080339F30073086E
:1002E800F00002308231872208004108013A0319E0
:1002F8002129033A03194829013A03196129842954
:1003080008002F08B3003008B4003108B5003208DF
:10031800B6000430B335B40DB50DB60D890B8E2972
:100328003608A3003508A2003408A1003308A0004D
:100338002F08B7003008B8003108B9003208BA00F1
:100348000430B735B80DB90DBA0D890BA5290030A1
:10035800BB001230BC007A30BD000030BE00370848
:10036800BB023808BC3B3908BD3B3A08BE3B3E08D7
:10037800A7003D08A6003C08A5003B08A400803162
:100388003A202108C0002008BF0023001E152000C5
:100398003F0823009B001E129D171E171D179D1551
:1003A800803021008E0023001D169E160800F500DF
:1003B8007508F4000230F436890BDF29741CF9291A
:1003C80075360139F400F40CF40C20000D0874069D
:1003D8007F3974068D0075080139F400F40EF40DA8
:1003E800F40D0D087406BF390B2A75360139F4006F
:1003F800F40EF40D20000D087406DF3974068D0024
:1004080075080139F400F40E0D087406EF39740606
:100418008D007508F4000330F436890B102A741C1B
:10042800080081312021080003302000A000973007
:10043800890B1C2AA00B1C2A003223001F1F212A0B
:1004480003302000A0009730890B282AA00B282A07
:10045800003223001F1F2D2A03302000A0009730F0
:10046800890B342AA00B342A003208000330F0002C
:100478009830890B3D2AF00B3D2A23001F1F412A83
:100488000330F0009830890B472AF00B472A2300E5
:100498001F1F4B2A0330F0009830890B512AF00BAC
:1004A800512A0800A10023001F1F572A20008E167A
:1004B80023001E142000210823009A002000111E8A
:1004C800622A23001E102000200823009A009E1C88
:1004D8006B2A20008E1208000030B2000030B100F4
:1004E8002530B0008030AF00813185218D010F307B
:1004F80021008D0020008D018E018B170B17210024
:10050800911611120800F10023001F1F882A2000ED
:100518008E1623001E1471089A002000111E912ABD
:1005280023001E1070089A009E1C982A20008E1224
:100538000800F400740820004106031DA52A0130B4
:10054800A62A0030F200F3017208F0007308F100E7
:10055800080082317022823120004103031DB02A35
:0A0568008031BB208231B02A033439
:020000040001F9
:04000E00E209FF1CE8
:00000001FF
